:100000000C9462000C94DA030C94B3030C948A00F1
:100010000C948A000C948A000C948A000C948A0038
:100020000C948A000C948A000C948A000C948A0028
:100030000C948A000C948A000C948A000C948A0018
:100040000C9469030C948A000C9427040C9401040A
:100050000C948A000C948A000C948A000C948A00F8
:100060000C9459040C948A00000000002300260020
:10007000290000000008000201000003040700003E
:1000800000000000000000000000250028002B00F8
:1000900000000000240027002A00040404040404D3
:1000A0000404020202020202030303030303010227
:1000B00004081020408001020408102001020408F6
:1000C0001020870511241FBECFEFD8E0DEBFCDBFC3
:1000D00011E0A0E0B1E0E4E4FDE002C005900D9283
:1000E000A832B107D9F722E0A8E2B1E001C01D9221
:1000F000A537B207E1F710E0C2E6D0E004C02197CF
:10010000FE010E949506C136D107C9F70E94C005BD
:100110000C94A0060C940000CF93DF9390E0FC01B8
:10012000E255FF4F2491FC01E656FF4F849188234E
:10013000C1F090E0880F991FFC01E057FF4FC59177
:10014000D491FC01EA57FF4FA591B4919FB7F89461
:100150008881E22FE0958E2388838C91E823EC93AD
:100160009FBFDF91CF910895833081F028F48130D3
:1001700099F08230A1F008958730A9F08830B9F065
:100180008430D1F4809180008F7D03C08091800005
:100190008F7780938000089584B58F7702C084B5EF
:1001A0008F7D84BD08958091B0008F7703C08091CA
:1001B000B0008F7D8093B0000895CF93DF93282FF8
:1001C00030E0F901EE58FF4F8491F901E255FF4FFD
:1001D000D491F901E656FF4FC491CC2389F08111E7
:1001E0000E94B400EC2FF0E0EE0FFF1FEA57FF4F24
:1001F000A591B4918FB7F894EC91ED2BEC938FBF50
:10020000DF91CF910895CF93DF93282F30E0F9014C
:10021000EE58FF4F8491F901E255FF4FD491F90157
:10022000E656FF4FC491CC2391F081110E94B40097
:10023000EC2FF0E0EE0FFF1FE859FF4FA591B491AE
:10024000EC91ED2381E090E021F480E002C080E0B9
:1002500090E0DF91CF91089582E00E940301019721
:1002600031F483E00E940301892B91F405C083E0FF
:100270000E940301019761F48091290190912A0164
:10028000A0912B01B0912C010196A11DB11D0BC0B5
:100290008091290190912A01A0912B01B0912C010C
:1002A0000197A109B1098093290190932A01A09394
:1002B0002B01B0932C0181E080932801089583E005
:1002C0000E940301019731F482E00E94030101972B
:1002D00091F405C082E00E940301892B61F48091B2
:1002E000290190912A01A0912B01B0912C01019636
:1002F000A11DB11D0BC08091290190912A01A091EF
:100300002B01B0912C010197A109B109809329011A
:1003100090932A01A0932B01B0932C0181E080934C
:1003200028010895E091C101F091C201309729F0B0
:100330001092BA011092B90109940895CF93DF93F6
:10034000AC01E0914D01F0914E013097F1F09091A8
:10035000BC018091BB019817C0F090E0292F30E0DC
:100360002617370754F4D901A35DBE4FEA01C20F27
:10037000D31F88818C939F5FF1CF1092BC01609353
:10038000BB01CB01DF91CF910994DF91CF9108950B
:100390000895CF92DF92EF92FF920F931F93CF9326
:1003A000DF936C017A018B01C0E0D0E0CE15DF0550
:1003B00089F0D8016D918D01D601ED91FC910190EC
:1003C000F081E02DC6010995892B11F47E0102C050
:1003D0002196ECCFC701DF91CF911F910F91FF9034
:1003E000EF90DF90CF900895FC01538D448D252F21
:1003F00030E0842F90E0821B930B541710F0CF96BF
:10040000089501970895FC01918D828D981761F0F0
:10041000828DDF01A80FB11D5D968C91928D9F5F3B
:100420009F73928F90E008958FEF9FEF0895FC01E6
:10043000918D828D981731F0828DE80FF11D858D99
:1004400090E008958FEF9FEF0895FC01918D228D2C
:10045000892F90E0805C9F4F821B91098F739927B1
:1004600008958CEC91E00E94250221E0892B09F48B
:1004700020E0822F0895FC01848DDF01A80FB11DBB
:10048000A35ABF4F2C91848D90E001968F739927CA
:10049000848FA689B7892C93A089B1898C918064B7
:1004A0008C93938D848D981306C00288F389E02D78
:1004B00080818F7D80830895EF92FF920F931F9329
:1004C000CF93DF93EC0181E0888F9B8D8C8D981307
:1004D00005C0E889F989808185FD24C0F62E0B8D41
:1004E00010E00F5F1F4F0F731127E02E8C8DE81265
:1004F0000CC00FB607FCFACFE889F989808185FF27
:10050000F5CFCE010E943B02F1CF8B8DFE01E80FAB
:10051000F11DE35AFF4FF0820B8FEA89FB8980813E
:10052000806207C0EE89FF896083E889F98980814C
:100530008064808381E090E0DF91CF911F910F91E3
:10054000FF90EF900895CF93DF93EC01888D88237F
:10055000C9F0EA89FB89808185FD05C0A889B98930
:100560008C9186FD0FC00FB607FCF5CF808185FF0B
:10057000F2CFA889B9898C9185FFEDCFCE010E9479
:100580003B02E7CFDF91CF91089580E090E0892B87
:1005900029F00E94310281110C940000089585ED2C
:1005A0008093BC008091BC0084FDFCCF1092B80108
:1005B000089540916F01262F30E0240F311D213224
:1005C0003105DCF42091B8012430C9F4FC0180E04D
:1005D00090E0861758F430916F012191DC01A15B06
:1005E000BE4FA30FB11D2C930196F3CF80916F01E5
:1005F000680F60936F0180E0089581E0089582E0C4
:1006000008950895E091BC018091BB01E81730F492
:10061000F0E0E35DFE4F808190E008958FEF9FEF63
:1006200008959091BC018091BB01981750F4E92F77
:10063000F0E0E35DFE4F208130E09F5F9093BC01CE
:1006400002C02FEF3FEFC90108958091BB0190E0F8
:100650002091BC01821B91090895CF93DF9300D0B4
:10066000CDB7DEB7CB01642F49835A830E94D902EC
:100670004981842F5A81952F0F900F90DF91CF9150
:10068000089544E050E069E271E089E692E00E945A
:100690002D031092290110922A0110922B01109221
:1006A0002C010895CF93DF931F92CDB7DEB76983F6
:1006B00061E0CE0101960E94D90281E090E00F90A6
:1006C000DF91CF910895089580E090E008950E9411
:1006D0009B061F920F920FB60F9211242F933F93F8
:1006E0008F939F93AF93BF938091C8019091C9015D
:1006F000A091CA01B091CB013091C70123E0230F33
:100700002D3720F40196A11DB11D05C026E8230F49
:100710000296A11DB11D2093C7018093C80190933B
:10072000C901A093CA01B093CB018091C3019091FC
:10073000C401A091C501B091C6010196A11DB11DD2
:100740008093C3019093C401A093C501B093C601E7
:10075000BF91AF919F918F913F912F910F900FBEBD
:100760000F901F9018951F920F920FB60F921124A1
:100770002F933F934F935F936F937F938F939F93A9
:10078000AF93BF93EF93FF93E0910201F0910301C8
:100790000995FF91EF91BF91AF919F918F917F91BB
:1007A0006F915F914F913F912F910F900FBE0F90DE
:1007B0001F9018951F920F920FB60F9211242F932E
:1007C0003F934F935F936F937F938F939F93AF93D9
:1007D000BF93EF93FF93E0910001F0910101099520
:1007E000FF91EF91BF91AF919F918F917F916F9109
:1007F0005F914F913F912F910F900FBE0F901F90DF
:1008000018951F920F920FB60F9211242F933F93BA
:100810004F935F936F937F938F939F93AF93BF9308
:10082000EF93FF938CEC91E00E943B02FF91EF91DC
:10083000BF91AF919F918F917F916F915F914F91F8
:100840003F912F910F900FBE0F901F9018951F9200
:100850000F920FB60F9211242F938F939F93EF93C4
:10086000FF93E091DC01F091DD018081E091E201F4
:10087000F091E30182FD12C090818091E5018F5FCC
:100880008F732091E601821751F0E091E501F0E0CD
:10089000E453FE4F958F8093E50101C08081FF9165
:1008A000EF919F918F912F910F900FBE0F901F90FE
:1008B00018951F920F920FB60F9211242F933F930A
:1008C0004F935F936F937F938F939F93AF93BF9358
:1008D000EF93FF938091B900887F803609F49CC024
:1008E00068F5883209F45BC090F4803109F454C093
:1008F00038F4882309F4F6C0883009F44DC0F6C0F6
:10090000883109F44CC0803209F45DC0EFC08034F6
:1009100009F468C048F4803309F455C0883309F0FD
:10092000E5C080939201D8C0803509F44FC0883566
:1009300009F45DC0883409F0D9C0D6C0883909F4FB
:10094000C7C0A8F4883709F467C038F4883609F4BA
:1009500063C0803709F460C0C9C0883809F4B8C0E2
:10096000803909F45FC0803809F0C0C05BC0803BAB
:1009700009F486C038F4803A09F466C0883A09F46C
:100980007FC0B4C0803C09F4A7C0883C09F4A4C06F
:10099000883B09F48AC0AAC08091B50110C090912B
:1009A000B4018091B301981770F5E091B40181E032
:1009B0008E0F8093B401F0E0ED56FE4F808180935E
:1009C000BB0085EC86C0809392018EC0E091B4019B
:1009D00081E08E0F8093B4018091BB00F0E0ED5672
:1009E000FE4F80839091B4018091B3016EC0E0917D
:1009F000B40181E08E0F8093B4018091BB00F0E0E0
:100A0000ED56FE4F80838091B70181116DC081E06A
:100A10008093B60184EA61C083E08093B8011092AC
:100A20009101CFCF80919101803208F051C0E091C7
:100A3000910181E08E0F809391018091BB00F0E0E5
:100A4000EF58FE4F8083BDCF85EC8093BC001092A1
:100A5000B80180919101803230F4E0919101F0E091
:100A6000EF58FE4F10826091910170E0E091BD015E
:100A7000F091BE0181E791E009951092910136C095
:100A800084E08093B8011092700110926F01E091A0
:100A9000BF01F091C001099580916F01811105C0DE
:100AA00081E080936F0110924F01E091700181E02D
:100AB0008E0F80937001F0E0E15BFE4F80818093A8
:100AC000BB009091700180916F01981708F479CF65
:100AD00085E88093BC000AC085EC8093BC0010922E
:100AE000B80104C0109292010E94CF02FF91EF91D1
:100AF000BF91AF919F918F917F916F915F914F9136
:100B00003F912F910F900FBE0F901F901895ECEC16
:100B1000F1E01382128288EE93E0A0E0B0E08483DB
:100B20009583A683B78328E031E03183208325ECC9
:100B300030E03587248724EC30E03787268720ECA7
:100B400030E0318B208B21EC30E0338B228B22EC98
:100B500030E0358B248B26EC30E0378B268B118EE2
:100B6000128E138E148EE9E6F2E0138212828483D1
:100B70009583A683B7838AE191E09183808308956A
:100B8000789484B5826084BD84B5816084BD85B568
:100B9000826085BD85B5816085BD80916E00816074
:100BA00080936E001092810080918100826080931A
:100BB000810080918100816080938100809180001C
:100BC0008160809380008091B10084608093B10047
:100BD0008091B00081608093B00080917A00846041
:100BE00080937A0080917A00826080937A0080916D
:100BF0007A00816080937A0080917A008068809387
:100C00007A001092C10084E18093BA0082E991E0F9
:100C10009093C0018093BF018EE991E09093BE0153
:100C20008093BD011092BC011092BB011092BA01D9
:100C30001092B9011092B80181E08093B70110922F
:100C4000B60182E10E94DD0083E10E94DD00809117
:100C5000B9008E7F8093B9008091B9008D7F809319
:100C6000B90088E48093B80085E48093BC0081E4F7
:100C700093E09093C2018093C10182E00E948C00B6
:100C800083E00E948C008CE291E0909301018093BC
:100C90000001809169008C7F816080936900E89AEF
:100CA0008FE591E0909303018093020180916900A8
:100CB000837F846080936900E99AE091DC01F09180
:100CC000DD0182E08083E091D801F091D9011082AA
:100CD000E091DA01F091DB018FEC80831092E40166
:100CE000E091E001F091E10186E08083E091DE0196
:100CF000F091DF01808180618083E091DE01F091DD
:100D0000DF01808188608083E091DE01F091DF0166
:100D1000808180688083E091DE01F091DF01808135
:100D20008F7D80830E94C502FDCFEE0FFF1F0590CF
:100D3000F491E02D099481E090E0F8940C94A006E1
:040D4000F894FFCF55
:100D4400C801C801000000005C02C901F401A3024B
:100D54002502030217020000000052032D0364035E
:080D6400010325031103020342
:00000001FF
